:100000000C9446000C945D000C945D000C945D0013
:100010000C945D000C945D000C945D000C945D00EC
:100020000C945D000C945D000C945D000C945D00DC
:100030000C945D000C945D000C945D000C945D00CC
:100040000C945D000C945D000C945D000C945D00BC
:100050000C945D000C945D000C945D000C945D00AC
:100060000C945D000C945D000C945D000C945D009C
:100070000C945D000C945D000C945D000C945D008C
:100080000C945D000C945D000C945D0011241FBE67
:10009000CFEFD0E4DEBFCDBF11E0A0E0B1E0EEE2F3
:1000A000F1E000E00BBF02C007900D92AE30B10747
:1000B000D9F70E948C000C9495000C940000CF930B
:1000C000C82F8A3019F48DE00E945F009091C00023
:1000D00095FFFCCFC093C60080E090E0CF910895DB
:1000E0009093C5008093C40088E18093C1008EE0A6
:1000F0008093C20082E08093C00008959091C00078
:1001000095FFFCCF8093C60008958091C00088239E
:10011000E4F78091C600089585E090E00E947000A9
:0E0120000E9485000E947E00FBCFF894FFCF66
:0E012E0000000002000000005F000000000062
:00000001FF
