:100000000C9446000C9458000C9458000C94580022
:100010000C9458000C9458000C9458000C94580000
:100020000C9458000C9458000C9458000C945800F0
:100030000C9458000C9458000C9458000C945800E0
:100040000C9458000C9458000C9458000C945800D0
:100050000C9458000C9458000C9458000C945800C0
:100060000C9458000C9458000C9458000C945800B0
:100070000C9458000C9458000C9458000C945800A0
:100080000C9458000C9458000C94580011241FBE76
:10009000CFEFD0E4DEBFCDBF11E0A0E0B1E001C002
:1000A0001D92A530B107E1F70E946A010C940E037E
:1000B0000C940000813081F0E1ECF0E080818861F7
:1000C0008083E2ECF0E080818660808383E380932C
:1000D000C4001092C5000895E9ECF0E080818861C9
:1000E0008083EAECF0E080818660808383E3809304
:1000F000CC001092CD000895813021F08091C00095
:10010000807208958091C80080720895813021F036
:100110008091C000807408958091C8008074089513
:10012000813021F08091C000807808958091C800CE
:1001300080780895813029F40DC08091C6008093A5
:1001400004018091C0008823C4F308958091CE00FB
:10015000809304018091C8008823C4F3089561301E
:1001600039F09091C00095FFFCCF8093C6000895B0
:100170009091C80095FFFCCF8093CE000895813008
:1001800039F08091C0008823E4F78091C60008957B
:100190008091C8008823E4F78091CE000895FF92F3
:1001A0000F931F93CF93DF938C01F62EC0E0D0E026
:1001B00004C06F2D0E94AF002196F801EC0FFD1FC7
:1001C00080818111F6CFDF91CF911F910F91FF9028
:1001D0000895CF92DF92EF92FF926B017C01209104
:1001E00000013091010140910201509103010E94F0
:1001F0009501882309F458C020E030E0A901C70127
:10020000B6010E949501811106C0E1E9F0E080810C
:100210008870808305C0E1E9F0E08081836080839D
:1002200028E539E344E75FE3C701B6010E94950181
:1002300088233CF48FEF9FEF909399008093980070
:1002400027C020E034E244EF56E4C701B6010E9423
:10025000A70218162CF4109299001092980018C05A
:1002600020E030E040E053E4C701B6010E94AB0259
:100270009B01AC0160E074E284EF9AE40E94990172
:100280000E94010261507109709399006093980077
:100290001092950010929400C0920001D09201013A
:1002A000E0920201F0920301FF90EF90DF90CF9077
:1002B000089580E4809390008BE08093910060E04B
:1002C00070E0CB010E94E900089510929000109216
:1002D000910008958EEF8AB981E08BB98FEF81B9D3
:1002E00012B884B915B880E00E945A000E945901E2
:1002F000C0E080E00E949000882339F080E00E94F6
:10030000BF00C82F80E00E949A00C2B9C4FF07C096
:1003100064EA70ED82E893E40E94E900EACF60E0CD
:1003200070E0CB010E94E900E4CF9CD008F481E0AA
:1003300008950CD0D2C0CAD040F0C1D030F021F422
:100340005F3F19F0B3C05111FCC0B6C0D7D098F3CD
:100350009923C9F35523B1F3951B550BBB27AA2746
:1003600062177307840738F09F5F5F4F220F331FB8
:10037000441FAA1FA9F333D00E2E3AF0E0E830D084
:1003800091505040E695001CCAF729D0FE2F27D087
:10039000660F771F881FBB1F261737074807AB0755
:1003A000B0E809F0BB0B802DBF01FF2793585F4FCA
:1003B0002AF09E3F510568F079C0C3C05F3FECF35F
:1003C000983EDCF3869577956795B795F7959F5F8F
:1003D000C9F7880F911D9695879597F90895E1E0E3
:1003E000660F771F881FBB1F621773078407BA0742
:1003F00020F0621B730B840BBA0BEE1F88F7E0959D
:10040000089504D06894B1119CC008957FD088F0FD
:100410009F5790F0B92F9927B751A0F0D1F0660FF0
:10042000771F881F991F1AF0BA95C9F712C0B1300B
:1004300081F086D0B1E0089583C0672F782F882798
:10044000B85F39F0B93FCCF3869577956795B3954A
:10045000D9F73EF490958095709561957F4F8F4FB9
:100460009F4F0895990F0008550FAA0BE0E8FEEF83
:1004700016161706E807F907C0F012161306E40768
:10048000F50798F0621B730B840B950B39F40A2661
:1004900061F0232B242B252B21F408950A2609F43F
:1004A000A140A6958FEF811D811D089597F99F6743
:1004B00080E870E060E008959FEF80EC08950024EC
:1004C0000A941616170618060906089500240A94B9
:1004D00012161306140605060895092E0394000C3F
:1004E00011F4882352F0BB0F40F4BF2B11F460FFCE
:1004F00004C06F5F7F4F8F4F9F4F089557FD9058F7
:10050000440F551F59F05F3F71F04795880F97FBD7
:10051000991F61F09F3F79F0879508951216130691
:100520001406551FF2CF4695F1DF08C016161706C0
:100530001806991FF1CF86957105610508940895F5
:10054000E894BB2766277727CB0197F908958ADFC0
:1005500008F48FEF08950BD0C0CFB1DF28F0B6DFDD
:1005600018F0952309F0A2CFA7CF1124EACFC6DF58
:10057000A0F3959FD1F3950F50E0551F629FF001B6
:10058000729FBB27F00DB11D639FAA27F00DB11D0F
:10059000AA1F649F6627B00DA11D661F829F222798
:1005A000B00DA11D621F739FB00DA11D621F839F1F
:1005B000A00D611D221F749F3327A00D611D231FF5
:1005C000849F600D211D822F762F6A2F11249F5743
:1005D00050408AF0E1F088234AF0EE0FFF1FBB1F66
:1005E000661F771F881F91505040A9F79E3F510505
:1005F00070F05CCFA6CF5F3FECF3983EDCF38695BE
:1006000077956795B795F795E7959F5FC1F7FE2BAF
:10061000880F911D9695879597F90895F894FFCFC7
:00000001FF
