:100000000C9446000C9458000C9458000C94580022
:100010000C9458000C9458000C9458000C94580000
:100020000C9458000C9458000C9458000C945800F0
:100030000C9458000C9458000C9458000C945800E0
:100040000C9458000C9458000C9458000C945800D0
:100050000C9458000C9458000C9458000C945800C0
:100060000C9458000C9458000C9458000C945800B0
:100070000C9458000C9458000C9458000C945800A0
:100080000C9458000C9458000C94580011241FBE76
:10009000CFEFD0E4DEBFCDBF11E0A0E0B1E001C002
:1000A0001D92A130B107E1F70E94E9000C94F8001D
:1000B0000C940000813081F0E1ECF0E080818861F7
:1000C0008083E2ECF0E080818660808383E380932C
:1000D000C4001092C5000895E9ECF0E080818861C9
:1000E0008083EAECF0E080818660808383E3809304
:1000F000CC001092CD000895813021F08091C00095
:10010000807208958091C80080720895813021F036
:100110008091C000807408958091C8008074089513
:10012000813021F08091C000807808958091C800CE
:1001300080780895813029F40DC08091C6008093A5
:1001400000018091C0008823C4F308958091CE00FF
:10015000809300018091C8008823C4F30895613022
:1001600039F09091C00095FFFCCF8093C6000895B0
:100170009091C80095FFFCCF8093CE000895813008
:1001800039F08091C0008823E4F78091C60008957B
:100190008091C8008823E4F78091CE000895FF92F3
:1001A0000F931F93CF93DF938C01F62EC0E0D0E026
:1001B00004C06F2D0E94AF002196F801EC0FFD1FC7
:1001C00080818111F6CFDF91CF911F910F91FF9028
:1001D00008958EEF8AB981E08BB98FEF87B918B88F
:1001E00080E00E945A0080E00E94BF0088B9FBCFE7
:0401F000F894FFCFB1
:00000001FF
