:100000000C9446000C9458000C9458000C94580022
:100010000C9458000C9458000C9458000C94580000
:100020000C9458000C9458000C9458000C945800F0
:100030000C9458000C9458000C9458000C945800E0
:100040000C9458000C9458000C9458000C945800D0
:100050000C9458000C9458000C9458000C945800C0
:100060000C9458000C9458000C9458000C945800B0
:100070000C9458000C9458000C9458000C945800A0
:100080000C9458000C9458000C94580011241FBE76
:10009000CFEFD0E4DEBFCDBF11E0A0E0B1E001C002
:1000A0001D92A530B107E1F70E9486010C94A501CD
:1000B0000C9400000F931F93CF93DF9300D000D0D8
:1000C0001F92CDB7DEB78C01DB01CE01019625E092
:1000D000FC0111922A95E9F7209A289A87EA91E67D
:1000E0000197F1F700C00000289896EA9A95F1F779
:1000F00000C0289A2098EDE0EA95F1F700001899E1
:1001000060C0FAE1FA95F1F700C0189B5CC02AE1E3
:100110002A95F1F700C080E030C02F5F3F4F293CA7
:10012000310518F052C020E030E0189BF6CFEAE02D
:10013000EA95F1F7189B0CC047E050E0491B5109C4
:1001400021E030E002C0220F331F4A95E2F7722B04
:1001500020E030E005C02F5F3F4F293C3105B8F566
:100160001899F9CF9F5F02C070E090E09830D8F204
:10017000FE01E80FF11D71838F5F8530A8F3209A8F
:10018000289A87EA91E60197F1F700C000003981CB
:100190008A812B819C81830F820F890F3D8183137C
:1001A00018C0892F90E0922BF80191838083898178
:1001B00090E0982F88272A81822B8D939C9380E052
:1001C00009C08FEF07C08FEF05C08FEF03C08FEF1F
:1001D00001C08FEF0F900F900F900F900F90DF9155
:1001E000CF911F910F9108950E945A000895813078
:1001F00081F0E1ECF0E0808188618083E2ECF0E066
:1002000080818660808383E38093C4001092C50060
:100210000895E9ECF0E0808188618083EAECF0E009
:1002200080818660808383E38093CC001092CD0030
:100230000895813021F08091C000807208958091EE
:10024000C80080720895813021F08091C0008074D0
:1002500008958091C80080740895813021F08091C4
:10026000C000807808958091C8008078089581301A
:1002700029F40DC08091C600809304018091C000D4
:100280008823C4F308958091CE0080930401809167
:10029000C8008823C4F30895613039F09091C000FC
:1002A00095FFFCCF8093C60008959091C80095FFFC
:1002B000FCCF8093CE000895813039F08091C0004A
:1002C0008823E4F78091C60008958091C8008823B0
:1002D000E4F78091CE000895FF920F931F93CF9380
:1002E000DF938C01F62EC0E0D0E004C06F2D0E9499
:1002F0004C012196F801EC0FFD1F80818111F6CF92
:10030000DF91CF911F910F91FF9008958EEF8AB9E1
:1003100081E08BB980E00E94F70060E071E082E04C
:1003200091E00E94F4008F3FC1F380E00E94190128
:10033000882399F360E0809102010E944C0180E0E3
:0E0340000E9423018823D9F3E8CFF894FFCF61
:00000001FF
