:100000000C9446000C9465000C9465000C946500FB
:100010000C9465000C9465000C9465000C946500CC
:100020000C9465000C9465000C9465000C946500BC
:100030000C9465000C9465000C9465000C946500AC
:100040000C9465000C9465000C9465000C9465009C
:100050000C9465000C9465000C9465000C9465008C
:100060000C9465000C9465000C9465000C9465007C
:100070000C9465000C9465000C9465000C9465006C
:100080000C9465000C9465000C94650011241FBE4F
:10009000CFEFD0E4DEBFCDBF11E0A0E0B1E0EEE7EE
:1000A000F5E000E00BBF02C007900D92A433B1074A
:1000B000D9F711E0A4E3B1E001C01D92AB33B10761
:1000C000E1F70E9456020C94BD020C9400000F93BD
:1000D0001F93CF93DF9300D000D01F92CDB7DEB730
:1000E0008C01DB01CE01019625E0FC0111922A95DD
:1000F000E9F7209A289A87EA91E60197F1F700C07C
:100100000000289896EA9A95F1F700C0289A20985E
:10011000EDE0EA95F1F70000189960C0FAE1FA9570
:10012000F1F700C0189B5CC02AE12A95F1F700C0E6
:1001300080E030C02F5F3F4F293C310518F052C09E
:1001400020E030E0189BF6CFEAE0EA95F1F7189B43
:100150000CC047E050E0491B510921E030E002C0EB
:10016000220F331F4A95E2F7722B20E030E005C0E2
:100170002F5F3F4F293C3105B8F51899F9CF9F5FA4
:1001800002C070E090E09830D8F2FE01E80FF11D57
:1001900071838F5F8530A8F3209A289A87EA91E6C9
:1001A0000197F1F700C0000039818A812B819C8181
:1001B000830F820F890F3D81831318C0892F90E030
:1001C000922BF80191838083898190E0982F882772
:1001D0002A81822B8D939C9380E009C08FEF07C00A
:1001E0008FEF05C08FEF03C08FEF01C08FEF0F902F
:1001F0000F900F900F900F90DF91CF911F910F9163
:1002000008950E946700089540E050E00CC000008F
:100210002F5F3F4F02C020E030E0273063E0360719
:10022000B4F34F5F5F4F48175907ACF308955E98DA
:1002300088B95F9A00005F9882E090E00E94040114
:10024000089581E00E9417010895813120F48158BA
:100250000E941701089581550E941701089584E6B0
:1002600090E00E94040188E30E94170186E00E944A
:1002700017018FE00E94170181E00E9417018AE0B8
:1002800090E00E94040108955E9A88B95F9A000088
:100290005F9881E090E00E9404010895FF920F931F
:1002A0001F93CF93DF93EB010DC0FF24F394F80E5F
:1002B0000E9425018E010F5F1F4F88810E9444011B
:1002C0008F2DE80198819111F0CFDF91CF911F918F
:1002D0000F91FF900895813081F0E1ECF0E0808192
:1002E00088618083E2ECF0E080818660808383E334
:1002F0008093C4001092C5000895E9ECF0E080817D
:1003000088618083EAECF0E080818660808383E30B
:100310008093CC001092CD000895813021F080911F
:10032000C000807208958091C80080720895813065
:1003300021F08091C000807408958091C80080747D
:100340000895813021F08091C000807808958091D7
:10035000C80080780895813029F40DC08091C600CE
:1003600080933A018091C0008823C4F3089580915E
:10037000CE0080933A018091C8008823C4F3089589
:10038000613039F09091C00095FFFCCF8093C6009A
:1003900008959091C80095FFFCCF8093CE000895FA
:1003A000813039F08091C0008823E4F78091C60045
:1003B00008958091C8008823E4F78091CE000895C5
:1003C000FF920F931F93CF93DF938C01F62EC0E023
:1003D000D0E004C06F2D0E94C0012196F801EC0FFF
:1003E000FD1F80818111F6CFDF91CF911F910F9179
:1003F000FF900895FF920F931F93CF93DF938C018B
:10040000EB01F12C03C0F3940456110904361105D5
:10041000D0F784E10E9425018F2D90E0C0960E94C4
:100420004401F12C03C0F3940A5011090A3011055C
:10043000D0F785E10E9425018F2D90E0C0960E94A3
:10044000440188E10E942501C8019927C0960E94B5
:10045000440110E003C01F5FC456D109C436D10562
:10046000D0F784E10E942501812F90E0C0960E9480
:10047000440110E002C01F5F2A97CA30D105D8F7A7
:1004800085E10E942501812F90E0C0960E944401E1
:1004900086E10E942501CE019927C0960E94440161
:1004A000DF91CF911F910F91FF90089514B88FEFB6
:1004B00085B98EEF8AB981E08BB980E00E946B012B
:1004C0000E942F0160E071E081E00E944E012FE365
:1004D0008DE093E0215080409040E1F700C00000A3
:1004E00066E371E088E391E00E9401018F3F29F10A
:1004F00040913801509139019A01ADECBCEC0E9459
:10050000AE02969587959695879596958795809353
:100510003501E0913601F09137019F010E94AE0252
:1005200096958795969587959695879580933401AE
:10053000BF01CA010E94FA0107C00E94210167E2BF
:1005400071E081E00E944E012FE78AE196E02150A0
:1005500080409040E1F700C00000C2CFA29FB001F0
:10056000B39FC001A39F700D811D1124911DB29FE7
:0E057000700D811D1124911D0895F894FFCF88
:10057E0043757272656E743A202054656D703A2020
:10058E00202E20432020202048756D6964697479DF
:10059E003A20202020250053656E736F722045721D
:0405AE00726F7200F6
:00000001FF
