:100000000C9446000C9465000C9465000C946500FB
:100010000C9465000C9465000C9465000C946500CC
:100020000C9465000C9465000C9465000C946500BC
:100030000C9465000C9465000C9465000C946500AC
:100040000C9465000C9465000C9465000C9465009C
:100050000C9465000C9465000C9465000C9465008C
:100060000C9465000C9465000C9465000C9465007C
:100070000C9465000C9465000C9465000C9465006C
:100080000C9465000C9465000C94650011241FBE4F
:10009000CFEFD0E4DEBFCDBF11E0A0E0B1E0E4EFF0
:1000A000F4E000E00BBF02C007900D92A230B10750
:1000B000D9F711E0A2E0B1E001C01D92A930B1076B
:1000C000E1F70E9420020C9478020C9400000F9338
:1000D0001F93CF93DF9300D000D01F92CDB7DEB730
:1000E0008C01DB01CE01019625E0FC0111922A95DD
:1000F000E9F7209A289A87EA91E60197F1F700C07C
:1001000000002898E3E9F1E13197F1F700C0000021
:10011000289A2098FDE0FA95F1F70000189956C04A
:100120002AE12A95F1F700C0189B52C08AE18A950E
:10013000F1F700C080E030C02F5F3F4F293C310510
:1001400018F048C020E030E0189BF6CFEAE0EA95CE
:10015000F1F7189B0CC047E050E0491B510921E022
:1001600030E002C0220F331F4A95E2F7722B20E0E5
:1001700030E005C02F5F3F4F293C310568F51899E5
:10018000F9CF9F5F02C070E090E09830D8F2FE0196
:10019000E80FF11D71838F5F8530A8F3209A289AAC
:1001A00087EA91E60197F1F700C0000089819A8102
:1001B0003B812C81890F830F820F9D8189130EC093
:1001C000F801308389818C9380E009C08FEF07C0EC
:1001D0008FEF05C08FEF03C08FEF01C08FEF0F903F
:1001E0000F900F900F900F90DF91CF911F910F9173
:1001F00008950E946700089540E050E00CC00000A0
:100200002F5F3F4F02C020E030E0273063E0360729
:10021000B4F34F5F5F4F48175907ACF308955E98EA
:1002200088B95F9A00005F9882E090E00E94FC002D
:10023000089581E00E940F010895813120F48158D2
:100240000E940F01089581550E940F01089584E6D0
:1002500090E00E94FC0088E30E940F0186E00E946B
:100260000F018FE00E940F0181E00E940F018AE0E0
:1002700090E00E94FC0008955E9A88B95F9A0000A1
:100280005F9881E090E00E94FC000895FF920F9338
:100290001F93CF93DF93EB010DC0FF24F394F80E6F
:1002A0000E941D018E010F5F1F4F88810E943C013B
:1002B0008F2DE80198819111F0CFDF91CF911F919F
:1002C0000F91FF900895813081F0E1ECF0E08081A2
:1002D00088618083E2ECF0E080818660808383E344
:1002E0008093C4001092C5000895E9ECF0E080818D
:1002F00088618083EAECF0E080818660808383E31C
:100300008093CC001092CD000895813021F080912F
:10031000C000807208958091C80080720895813075
:1003200021F08091C000807408958091C80080748D
:100330000895813021F08091C000807808958091E7
:10034000C80080780895813029F40DC08091C600DE
:10035000809308018091C0008823C4F308958091A0
:10036000CE00809308018091C8008823C4F30895CB
:10037000613039F09091C00095FFFCCF8093C600AA
:1003800008959091C80095FFFCCF8093CE0008950A
:10039000813039F08091C0008823E4F78091C60055
:1003A00008958091C8008823E4F78091CE000895D5
:1003B000FF920F931F93CF93DF938C01F62EC0E033
:1003C000D0E004C06F2D0E94B8012196F801EC0F17
:1003D000FD1F80818111F6CFDF91CF911F910F9189
:1003E000FF900895EAE7F0E08081806E80830895B1
:1003F0008C3118F08FEF88B908958B3118F08FE7A2
:1004000088B908958A3118F08FE388B90895893141
:1004100018F08FE188B90895883118F08FE088B915
:100420000895873118F087E088B90895863118F06B
:1004300083E088B90895853110F081E088B9089586
:1004400011B88FEF82B987B918B814B885B98EEF93
:100450008AB981E08BB980E00E9463010E94F201B9
:1004600066E071E087E091E00E94F9008F3F59F06B
:1004700080910701809305019091060190930401FA
:100480000E94F80102C08FEF88B920917800309166
:100490007900309303012093020180910001909133
:1004A0000101969587952817390710F480E001C05F
:1004B00080E190910501943110F4816003C099317D
:1004C00008F0826090910401943110F4846003C0BC
:1004D0009D3308F0886060E00E94B8012FED83E949
:1004E00094E0215080409040E1F700C00000B8CF78
:0404F000F894FFCFAE
:0204F400FF0007
:00000001FF
